{
  "_format": "hh-sol-artifact-1",
  "contractName": "Escrow",
  "sourceName": "contracts/Escrow.sol",
  "abi": [
    {
      "inputs": [
        {
          "internalType": "address",
          "name": "_seller",
          "type": "address"
        }
      ],
      "stateMutability": "payable",
      "type": "constructor"
    },
    {
      "anonymous": false,
      "inputs": [
        {
          "indexed": true,
          "internalType": "address",
          "name": "buyer",
          "type": "address"
        },
        {
          "indexed": false,
          "internalType": "uint256",
          "name": "amount",
          "type": "uint256"
        }
      ],
      "name": "FundsDeposited",
      "type": "event"
    },
    {
      "anonymous": false,
      "inputs": [
        {
          "indexed": true,
          "internalType": "address",
          "name": "buyer",
          "type": "address"
        },
        {
          "indexed": false,
          "internalType": "uint256",
          "name": "amount",
          "type": "uint256"
        }
      ],
      "name": "FundsRefunded",
      "type": "event"
    },
    {
      "anonymous": false,
      "inputs": [
        {
          "indexed": true,
          "internalType": "address",
          "name": "seller",
          "type": "address"
        },
        {
          "indexed": false,
          "internalType": "uint256",
          "name": "amount",
          "type": "uint256"
        }
      ],
      "name": "FundsReleased",
      "type": "event"
    },
    {
      "inputs": [],
      "name": "amount",
      "outputs": [
        {
          "internalType": "uint256",
          "name": "",
          "type": "uint256"
        }
      ],
      "stateMutability": "view",
      "type": "function"
    },
    {
      "inputs": [],
      "name": "buyer",
      "outputs": [
        {
          "internalType": "address",
          "name": "",
          "type": "address"
        }
      ],
      "stateMutability": "view",
      "type": "function"
    },
    {
      "inputs": [],
      "name": "getStatus",
      "outputs": [
        {
          "internalType": "string",
          "name": "",
          "type": "string"
        }
      ],
      "stateMutability": "view",
      "type": "function"
    },
    {
      "inputs": [],
      "name": "isRefunded",
      "outputs": [
        {
          "internalType": "bool",
          "name": "",
          "type": "bool"
        }
      ],
      "stateMutability": "view",
      "type": "function"
    },
    {
      "inputs": [],
      "name": "isReleased",
      "outputs": [
        {
          "internalType": "bool",
          "name": "",
          "type": "bool"
        }
      ],
      "stateMutability": "view",
      "type": "function"
    },
    {
      "inputs": [],
      "name": "refund",
      "outputs": [],
      "stateMutability": "nonpayable",
      "type": "function"
    },
    {
      "inputs": [],
      "name": "release",
      "outputs": [],
      "stateMutability": "nonpayable",
      "type": "function"
    },
    {
      "inputs": [],
      "name": "seller",
      "outputs": [
        {
          "internalType": "address",
          "name": "",
          "type": "address"
        }
      ],
      "stateMutability": "view",
      "type": "function"
    }
  ],
  "bytecode": "0x6080604052604051610b51380380610b5183398181016040528101906100259190610138565b336000806101000a81548173ffffffffffffffffffffffffffffffffffffffff021916908373ffffffffffffffffffffffffffffffffffffffff16021790555080600160006101000a81548173ffffffffffffffffffffffffffffffffffffffff021916908373ffffffffffffffffffffffffffffffffffffffff1602179055503460028190555060008054906101000a900473ffffffffffffffffffffffffffffffffffffffff1673ffffffffffffffffffffffffffffffffffffffff167f543ba50a5eec5e6178218e364b1d0f396157b3c8fa278522c2cb7fd99407d4746002546040516101159190610170565b60405180910390a2506101de565b600081519050610132816101c7565b92915050565b60006020828403121561014a57600080fd5b600061015884828501610123565b91505092915050565b61016a816101bd565b82525050565b60006020820190506101856000830184610161565b92915050565b60006101968261019d565b9050919050565b600073ffffffffffffffffffffffffffffffffffffffff82169050919050565b6000819050919050565b6101d08161018b565b81146101db57600080fd5b50565b610964806101ed6000396000f3fe608060405234801561001057600080fd5b50600436106100885760003560e01c8063779cd0831161005b578063779cd083146100f157806386d1a69f1461010f578063aa8c217c14610119578063fa2a89971461013757610088565b806308551a531461008d5780634e69d560146100ab578063590e1ae3146100c95780637150d8ae146100d3575b600080fd5b610095610155565b6040516100a291906107b3565b60405180910390f35b6100b361017b565b6040516100c091906107e9565b60405180910390f35b6100d161025d565b005b6100db61044c565b6040516100e891906107b3565b60405180910390f35b6100f9610470565b60405161010691906107ce565b60405180910390f35b610117610483565b005b610121610674565b60405161012e919061086b565b60405180910390f35b61013f61067a565b60405161014c91906107ce565b60405180910390f35b600160009054906101000a900473ffffffffffffffffffffffffffffffffffffffff1681565b6060600360009054906101000a900460ff16156101cf576040518060400160405280600881526020017f72656c6561736564000000000000000000000000000000000000000000000000815250905061025a565b600360019054906101000a900460ff1615610221576040518060400160405280600881526020017f726566756e646564000000000000000000000000000000000000000000000000815250905061025a565b6040518060400160405280600481526020017f68656c640000000000000000000000000000000000000000000000000000000081525090505b90565b600160009054906101000a900473ffffffffffffffffffffffffffffffffffffffff1673ffffffffffffffffffffffffffffffffffffffff163373ffffffffffffffffffffffffffffffffffffffff16146102ed576040517f08c379a00000000000000000000000000000000000000000000000000000000081526004016102e49061080b565b60405180910390fd5b600360009054906101000a900460ff161580156103175750600360019054906101000a900460ff16155b610356576040517f08c379a000000000000000000000000000000000000000000000000000000000815260040161034d9061084b565b60405180910390fd5b6001600360016101000a81548160ff02191690831515021790555060008054906101000a900473ffffffffffffffffffffffffffffffffffffffff1673ffffffffffffffffffffffffffffffffffffffff166108fc6002549081150290604051600060405180830381858888f193505050501580156103d9573d6000803e3d6000fd5b5060008054906101000a900473ffffffffffffffffffffffffffffffffffffffff1673ffffffffffffffffffffffffffffffffffffffff167fbada1a1bf129e41a8af5abe00997bd8a8cb1770cb0cf68314eb4b1d6c4271397600254604051610442919061086b565b60405180910390a2565b60008054906101000a900473ffffffffffffffffffffffffffffffffffffffff1681565b600360019054906101000a900460ff1681565b60008054906101000a900473ffffffffffffffffffffffffffffffffffffffff1673ffffffffffffffffffffffffffffffffffffffff163373ffffffffffffffffffffffffffffffffffffffff1614610511576040517f08c379a00000000000000000000000000000000000000000000000000000000081526004016105089061082b565b60405180910390fd5b600360009054906101000a900460ff1615801561053b5750600360019054906101000a900460ff16155b61057a576040517f08c379a00000000000000000000000000000000000000000000000000000000081526004016105719061084b565b60405180910390fd5b6001600360006101000a81548160ff021916908315150217905550600160009054906101000a900473ffffffffffffffffffffffffffffffffffffffff1673ffffffffffffffffffffffffffffffffffffffff166108fc6002549081150290604051600060405180830381858888f193505050501580156105ff573d6000803e3d6000fd5b50600160009054906101000a900473ffffffffffffffffffffffffffffffffffffffff1673ffffffffffffffffffffffffffffffffffffffff167f221c08a06b07a64803b3787861a3f276212fcccb51c2e6234077a9b8cb13047a60025460405161066a919061086b565b60405180910390a2565b60025481565b600360009054906101000a900460ff1681565b610696816108a2565b82525050565b6106a5816108b4565b82525050565b60006106b682610886565b6106c08185610891565b93506106d08185602086016108ea565b6106d98161091d565b840191505092915050565b60006106f1601683610891565b91507f4f6e6c792073656c6c65722063616e20726566756e64000000000000000000006000830152602082019050919050565b6000610731601c83610891565b91507f4f6e6c792062757965722063616e2072656c656173652066756e6473000000006000830152602082019050919050565b6000610771601683610891565b91507f457363726f7720616c726561647920736574746c6564000000000000000000006000830152602082019050919050565b6107ad816108e0565b82525050565b60006020820190506107c8600083018461068d565b92915050565b60006020820190506107e3600083018461069c565b92915050565b6000602082019050818103600083015261080381846106ab565b905092915050565b60006020820190508181036000830152610824816106e4565b9050919050565b6000602082019050818103600083015261084481610724565b9050919050565b6000602082019050818103600083015261086481610764565b9050919050565b600060208201905061088060008301846107a4565b92915050565b600081519050919050565b600082825260208201905092915050565b60006108ad826108c0565b9050919050565b60008115159050919050565b600073ffffffffffffffffffffffffffffffffffffffff82169050919050565b6000819050919050565b60005b838110156109085780820151818401526020810190506108ed565b83811115610917576000848401525b50505050565b6000601f19601f830116905091905056fea2646970667358221220974f3156a9149377c4675ed7c692444a723a12af715f66e8b37bc4b78cce8eec64736f6c63430008000033",
  "linkReferences": {},
  "deployedLinkReferences": {}
}